:040000001FEF00F0FE
:100018005C80D8CF01F0E8CF02F0E0CF03F05EECCF
:100028001BF0DFEC19F003C0E0FF02C0E8FF01C0DD
:0A003800D8FF5C9010003CEF19F0B7
:10080000000868736574706F696E74203D202566FA
:10081000207C7C2063617574696E2054203D202506
:10082000660A0D00252E32662C252E32660D0069D3
:100830006E66006E616E0000000E0001886F62C07F
:1008400089F063C08AF064C08BF065C08CF08CBF07
:100850002EEF04F02CEF04F042EF04F0010E886F4D
:1008600089C004F08AC005F08BC006F08CC007F088
:100870000FEC1BF004C089F005C08AF006C08BF0B5
:1008800007C08CF0000E00018E6F000E8D6FEFC060
:1008900078F0F0C079F08851D8B451EF04F053EFFC
:1008A00004F067EF04F08851D8A459EF04F05BEF2F
:1008B00004F061EF04F0000E6E6F2B0E6D6F65EFAC
:1008C00004F0000E6E6F2D0E6D6F6DC088F089C044
:1008D00004F08AC005F08BC006F08CC007F057EC1E
:1008E00017F004040510D8A478EF04F07AEF04F0B0
:1008F000B1EF04F000018851D8B481EF04F083EF28
:1009000004F08CEF04F088C004F17807D8A07907D0
:10091000000E8E6F010E8D6F040E8D25046E010E7C
:100920008E21056E2F0E066E080E076EEFEC1AF084
:100930000001FD0E7827FF0E792360C014F061C01E
:1009400015F0040E166E010E176E78C018F079C0FF
:1009500019F0F3EC18F014C060F015C061F01FEF4F
:1009600009F089C004F08AC005F08BC006F08CC085
:1009700007F057EC17F004500510D8A4C2EF04F0AC
:10098000C4EF04F0E4EF04F000018851D8B4CBEFD9
:1009900004F0CDEF04F0D6EF04F088C004F178073E
:1009A000D8A07907000E8E6F010E8D6F040E8D2575
:1009B000046E010E8E21056E330E066E080E076E54
:1009C000EFEC1AF098EF04F0000E00018F6F000EAC
:1009D000906F800E916F3F0E926F000E776F000E3A
:1009E000766F89C004F08AC005F08BC006F08CC019
:1009F00007F0000E086E000E096E000E0A6E000E63
:100A00000B6E9EEC18F0D8B008EF05F00AEF05F079
:100A1000E9EF05F017EF05F07AC08FF07BC090F09A
:100A20007CC091F07DC092F00001764B772B8FC097
:100A30002DF090C02EF091C02FF092C030F0000E3B
:100A4000316E000E326E200E336E410E346E80EC2D
:100A50000BF02DC07AF02EC07BF02FC07CF030C0A0
:100A60007DF000017A51895D046E7B518A59056ED3
:100A70007C518B59066E7D518C59076E7BEC19F0B9
:100A800007BE4EEF05F007500610051009E1020EF3
:100A9000045CD8A04EEF05F050EF05F00CEF05F028
:100AA0007AC046F07BC047F07CC048F07DC049F07A
:100AB00089C04AF08AC04BF08BC04CF08CC04DF01E
:100AC000D5EC16F0D8A067EF05F069EF05F00CEF54
:100AD00005F000018F51895D046E90518A59056EB1
:100AE00091518B59066E92518C59076E7BEC19F01F
:100AF00007BE88EF05F007500610051007E1020E4B
:100B0000045CD8B086EF05F088EF05F0D0EF05F073
:100B10008FC089F090C08AF091C08BF092C08CF0A9
:100B2000E9EF05F08FC004F090C005F091C006F029
:100B300092C007F0000E086E000E096E200E0A6EBD
:100B4000410E0B6E95EC0DF004C08FF005C090F0D7
:100B500006C091F007C092F000017607D8A0770791
:100B60008F51895D046E90518A59056E91518B5950
:100B7000066E92518C59076E7BEC19F007BECEEFD2
:100B800005F007500610051007E1020E045CD8B00E
:100B9000CCEF05F0CEEF05F0D0EF05F088EF05F0D3
:100BA00089C046F08AC047F08BC048F08CC049F03D
:100BB0008FC04AF090C04BF091C04CF092C04DF005
:100BC000D5EC16F0D8A0E7EF05F0E9EF05F092EFCD
:100BD00005F066C070F070C071F00001F2BFF3EF75
:100BE00005F0F5EF05F0FBEF05F0F1C069F0F2C09C
:100BF0006AF0FFEF05F0000E6A6F060E696F69C0BC
:100C000074F06AC075F0744B752B660E7119D8A418
:100C10000CEF06F00EEF06F02EEF06F077BF15EFA3
:100C200006F013EF06F021EF06F0000E8F6F000EB6
:100C3000906F800E916F3F0E926F000E776F000ED7
:100C4000766F670E7019D8B428EF06F02AEF06F019
:100C50002EEF06F07651742777517523000E7F6FC3
:100C6000000E7E6F89C080F08AC081F08BC082F058
:100C70008CC083F08FC07AF090C07BF091C07CF084
:100C800092C07DF0BFEF06F080C004F081C005F097
:100C900082C006F083C007F08FC008F090C009F052
:100CA00091C00AF092C00BF095EC0DF004C01DF05D
:100CB00005C01EF006C01FF007C020F03AEC12F08D
:100CC0001DC084F01EC085F01FC086F020C087F0D4
:100CD00084C004F085C005F086C006F087C007F028
:100CE00052EC16F004C072F005C073F080C046F0FC
:100CF00081C047F082C048F083C049F084C031F021
:100D000085C032F086C033F087C034F08FC02DF03C
:100D100090C02EF091C02FF092C030F080EC0BF01C
:100D20002DC04AF02EC04BF02FC04CF030C04DF01B
:100D300088EC1AF046C080F047C081F048C082F0CD
:100D400049C083F08FC004F090C005F091C006F058
:100D500092C007F0000E086E000E096E200E0A6E9B
:100D6000410E0B6E95EC0DF004C08FF005C090F0B5
:100D700006C091F007C092F000017E4B7F2B7451AA
:100D80007E5D7F51800A526E7551800A5258D8A0FC
:100D9000CCEF06F0CEEF06F044EF06F08FC02DF05A
:100DA00090C02EF091C02FF092C030F0000E316E46
:100DB000000E326EA00E336E400E346E80EC0BF0DF
:100DC0002DC084F02EC085F02FC086F030C087F093
:100DD00080C046F081C047F082C048F083C049F02F
:100DE00084C04AF085C04BF086C04CF087C04DF0FF
:100DF000D5EC16F0D8B0FFEF06F001EF07F00CEFDE
:100E000007F0000E0001846F000E856F000E866FE4
:100E1000000E876F35EF07F080C004F081C005F049
:100E200082C006F083C007F084C008F085C009F0D6
:100E300086C00AF087C00BF09EEC18F0D8A023EF14
:100E400007F025EF07F035EF07F0000172B12BEF47
:100E500007F02DEF07F035EF07F0000E846F000E5E
:100E6000856F000E866F000E876F89C01DF08AC0E7
:100E70001EF08BC01FF08CC020F084C021F085C014
:100E800022F086C023F087C024F020EC09F01DC0BA
:100E900080F01EC081F01FC082F020C083F080C0AF
:100EA00046F081C047F082C048F083C049F0000E90
:100EB000316E000E326E200E336E410E346E7AC0EB
:100EC0002DF07BC02EF07CC02FF07DC030F080EC88
:100ED0000BF02DC04AF02EC04BF02FC04CF030C0AC
:100EE0004DF0D5EC16F0D8A078EF07F07AEF07F0C8
:100EF000A3EF07F00001764B772B7AC02DF07BC073
:100F00002EF07CC02FF07DC030F0000E316E000E50
:100F1000326E200E336E410E346E80EC0BF02DC01D
:100F20007AF02EC07BF02FC07CF030C07DF0660ED2
:100F300000017119D8A49FEF07F0A1EF07F0A3EF0C
:100F400007F0744B752B7AC08FF07BC090F07CC09B
:100F500091F07DC092F076C067F077C068F0000E27
:100F600000016F6F000E6C6F000E6B6F000E7F6FD5
:100F7000000E7E6FA1EF08F080C004F081C005F084
:100F800082C006F083C007F08FC008F090C009F05F
:100F900091C00AF092C00BF095EC0DF004C01DF06A
:100FA00005C01EF006C01FF007C020F03AEC12F09A
:100FB0001DC084F01EC085F01FC086F020C087F0E1
:100FC00084C004F085C005F086C006F087C007F035
:100FD00052EC16F005BEF8EF07F0055007E10A0ED7
:100FE000045CD8B0F6EF07F0F8EF07F008EF08F070
:100FF00084C004F085C005F086C006F087C007F005
:1010000052EC16F004C072F005C073F00DEF08F05A
:10101000000E0001736F090E726F00016F51D8A4AA
:1010200014EF08F016EF08F03EEF08F068BF1DEF70
:1010300008F01BEF08F03EEF08F0040E8D25D96E86
:10104000010E8E21DA6E2E0EDF6E8D4B8E2B780701
:10105000D8A07907010E6F6F3EEF08F0040E8D25C2
:10106000D96E010E8E21DA6E300EDF6E8D4B8E2B17
:101070007807D8A079076B07D8A06C076B516C1163
:10108000D8A445EF08F047EF08F02EEF08F0040E63
:101090008D25D96E010E8E21DA6E7251300FDF6E02
:1010A0008D4B8E2B7807D8A0790780C046F081C081
:1010B00047F082C048F083C049F084C031F085C059
:1010C00032F086C033F087C034F08FC02DF090C06E
:1010D0002EF091C02FF092C030F080EC0BF02DC0BC
:1010E0004AF02EC04BF02FC04CF030C04DF088ECD1
:1010F0001AF046C080F047C081F048C082F049C075
:1011000083F08FC004F090C005F091C006F092C04B
:1011100007F0000E086E000E096E200E0A6E410EDA
:101120000B6E95EC0DF004C08FF005C090F006C07A
:1011300091F007C092F000016707D8A068077E4BC6
:101140007F2B74517E5D7F51800A526E7551800AEB
:101150005258D8B0AEEF08F0B0EF08F0BEEF08F08C
:101160008EBFBCEF08F08E5109E14B0E8D5DD8A00B
:10117000BCEF08F0BEEF08F0BCEF07F0000E7F6F89
:101180004F0E7E6F040E7E25D96E010E7F21DA6E22
:10119000DF6A040E526E010E536E8D51525E8E51F7
:1011A000535A7E515224046E7F515320056E040E13
:1011B000066E010E076E8DC008F08EC009F060EC5F
:1011C0001AF000018D517E5D8D6F8E517F598E6FAB
:1011D0008851D8A4EEEF08F0F1EF08F0010EF2EF1D
:1011E00008F0000E7E6F7F6B8851D8B4FAEF08F0DC
:1011F000FCEF08F007EF09F08D07D8A08E07040E6A
:101200008D25D96E010E8E21DA6E88C0DFFF7E51EA
:10121000785F7F51795B60C014F061C015F0040EF7
:101220008D25166E010E8E21176E78C018F079C0CC
:1012300019F0F3EC18F014C060F015C061F0120062
:101240002050800B296E205020242B6E1FAE2BEFD8
:1012500009F02DEF09F02EEF09F02B802B50D8B4B8
:1012600034EF09F036EF09F04BEF09F02B28D8A442
:101270003CEF09F03EEF09F046EF09F0000E1D6E5D
:10128000000E1E6E000E1F6E000E206E1F8E000ED2
:10129000206E53EF09F0000E1D6E000E1E6E000E44
:1012A0001F6E000E206E2450800B2A6E29502A18C3
:1012B000D8B45DEF09F05FEF09F060EF09F0298C19
:1012C000245024242A6E23AE68EF09F06AEF09F057
:1012D0006BEF09F02A802A50D8B471EF09F073EF50
:1012E00009F088EF09F02A28D8A479EF09F07BEFFC
:1012F00009F083EF09F0000E216E000E226E000E41
:10130000236E000E246E238E000E246E90EF09F0E3
:10131000000E216E000E226E000E236E000E246E53
:101320002B502A5CD8B097EF09F099EF09F0C0EF85
:1013300009F029AC9EEF09F0A0EF09F0A2EF09F047
:10134000800E291A2BC02CF02AC02BF02CC02AF0BA
:101350001DC02CF021C01DF02CC021F01EC02CF0AF
:1013600022C01EF02CC022F01FC02CF023C01FF0A2
:101370002CC023F020C02CF024C020F02CC024F07E
:10138000000E2C6E2B502AC025F0266A255E000E1A
:10139000265A26BED5EF09F0265009E11A0E255C23
:1013A000D8A0D5EF09F0D7EF09F00EEF0AF01D50E5
:1013B0001E101F102010D8A4E0EF09F0E3EF09F091
:1013C000010EE4EF09F0000E2C6E000E1D6E000EF3
:1013D0001E6E000E1F6E000E206E2AC02BF017EF3F
:1013E0000AF02CA0F6EF09F0F8EF09F0FEEF09F093
:1013F000D8902C3001092C6E00EF0AF0D8902C32D6
:101400001DA005EF0AF007EF0AF008EF0AF02C8E96
:10141000203420321F321E321D322B2A2A502B5CE0
:10142000D8A015EF0AF017EF0AF0F1EF09F029BC88
:101430001CEF0AF01EEF0AF05EEF0AF02B50D8A462
:1014400024EF0AF026EF0AF030EF0AF0000E1D6ECE
:10145000000E1E6E000E1F6E000E206E7FEF0BF052
:1014600021501D2622501E2223501F2224502022AC
:1014700020A03DEF0AF03FEF0AF0EBEF0AF02CA0BE
:1014800044EF0AF046EF0AF04CEF0AF0D8902C3007
:1014900001092C6E4EEF0AF0D8902C321DA053EFAC
:1014A0000AF055EF0AF056EF0AF02C8E2034203265
:1014B0001F321E321D322B2AEBEF0AF021501D5C29
:1014C00022501E5823501F582050800A256E245049
:1014D000800A2558D8B06FEF0AF071EF0AF09CEF40
:1014E0000AF01D50215C256E1E502258266E1F509A
:1014F0002358276E20502458286EFF0E25241D6E79
:10150000FF0E26201E6EFF0E27201F6EFF0E2820C6
:10151000206E800E291A2C6C2C50D8A492EF0AF061
:1015200094EF0AF0A4EF0AF0010E1D26000E1E2211
:101530001F222022A4EF0AF021501D5E22501E5AC5
:1015400023501F5A2450205A1D501E101F102010C7
:10155000D8A4ADEF0AF0AFEF0AF0E4EF0AF02C5098
:10156000D8A4B5EF0AF0B7EF0AF0E4EF0AF0000EE6
:101570001D6E000E1E6E000E1F6E000E206E7FEFA1
:101580000BF0D8901D361E361F3620362CAECBEF12
:101590000AF0CDEF0AF0CEEF0AF01D802CA0D3EFB9
:1015A0000AF0D5EF0AF0D9EF0AF0D8802C36DBEF3D
:1015B0000AF0D8902C362B50D8B4E1EF0AF0E3EFC4
:1015C0000AF0E4EF0AF02B061FAEE9EF0AF0EBEFAA
:1015D0000AF0C1EF0AF0000E2A6E2CAEF2EF0AF00C
:1015E000F4EF0AF00CEF0BF02CC025F07F0E25165F
:1015F000D8B4FDEF0AF0FFEF0AF003EF0BF0010E95
:101600002A6E0CEF0BF01DA008EF0BF00AEF0BF0A9
:101610000CEF0BF0FFEF0AF02A50D8B412EF0BF0EA
:1016200014EF0BF03FEF0BF0010E1D26000E1E22F3
:101630001F22202220A01FEF0BF021EF0BF03FEF25
:101640000BF01DC025F01EC026F01FC027F020C0E3
:1016500028F02834283227322632253225C01DF0C2
:1016600026C01EF027C01FF028C020F02B28D8B4B9
:101670003CEF0BF03EEF0BF03FEF0BF02B2A2B284B
:10168000D8B445EF0BF047EF0BF04FEF0BF02B50BA
:10169000D8A44DEF0BF04FEF0BF061EF0BF0000E05
:1016A0001D6E000E1E6E000E1F6E000E206E2B5063
:1016B000D8A45DEF0BF05FEF0BF061EF0BF0000EC5
:1016C000296E2BA066EF0BF068EF0BF06BEF0BF0C1
:1016D0001F8E6CEF0BF01F9ED8902B30206E29AE22
:1016E00074EF0BF076EF0BF077EF0BF0208E1DC050
:1016F0001DF01EC01EF01FC01FF020C020F0120001
:101700003050800B396E305030243F6E2FAE8BEF4F
:101710000BF08DEF0BF08EEF0BF03F803F50D8B405
:1017200094EF0BF096EF0BF0A9EF0BF03F28D8A445
:101730009CEF0BF09EEF0BF0A6EF0BF0000E2D6E62
:10174000000E2E6E000E2F6E000E306E2F8EB1EF3B
:101750000BF0000E2D6E000E2E6E000E2F6E000E82
:10176000306E3450800B391A345034243A6E33AE14
:10177000BCEF0BF0BEEF0BF0BFEF0BF03A803A502E
:10178000D8B4C5EF0BF0C7EF0BF0DAEF0BF03A2847
:10179000D8A4CDEF0BF0CFEF0BF0D7EF0BF0000E8E
:1017A000316E000E326E000E336E000E346E338ECC
:1017B000E2EF0BF0000E316E000E326E000E336E53
:1017C000000E346E3A50D8B4E8EF0BF0EAEF0BF0AD
:1017D000F2EF0BF03F50D8A4F0EF0BF0F2EF0BF06C
:1017E000FCEF0BF0000E2D6E000E2E6E000E2F6E15
:1017F000000E306E94EF0DF033502D02F3CF44F015
:10180000F4CF45F044503B6E3C6A3D6A3E6A455019
:10181000406E416A426A436A32502E02F3CF44F06E
:10182000F4CF45F044503B26000E3C223D223E22A0
:1018300045504026000E41224222432231502F02C1
:10184000F3CF44F0F4CF45F044503B26000E3C2249
:101850003D223E2245504026000E41224222432294
:101860003DC03EF03CC03DF03BC03CF03B6A3150D7
:101870002E02F3CF44F0F4CF45F044503B264550C0
:101880003C22000E3D22000E3E2232502D02F3CFAC
:1018900044F0F4CF45F044503B2645503C22000E26
:1018A0003D22000E3E223DC03EF03CC03DF03BC01C
:1018B0003CF03B6A31502D02F3CF44F0F4CF45F0B9
:1018C00044503B2645503C22000E3D22000E3E2255
:1018D00033502E02F3CF44F0F4CF45F0445040266D
:1018E00045504122000E4222000E432232502F0268
:1018F000F3CF44F0F4CF45F0445040264550412208
:10190000000E4222000E432233502F02F3CF44F048
:10191000F4CF45F04450356E4550366E376A386A1C
:1019200037C038F036C037F035C036F0356A35503C
:1019300040263650412237504222385043223BC085
:1019400035F03CC036F03DC037F03EC038F0190EDF
:10195000AFEF0CF0D8903832373236323532E82ECD
:10196000AAEF0CF035504026365041223750422223
:10197000385043223DC03EF03CC03DF03BC03CF0FF
:101980003B6A3A503FC035F0366A3526000E3622A3
:10199000820E3524446EFF0E3620456EE5EF0CF0C6
:1019A000D89040364136423643363EAEDAEF0CF040
:1019B000DCEF0CF0DDEF0CF04080D8903B363C368D
:1019C0003D363E364406D8A0450642AEEAEF0CF05E
:1019D000ECEF0CF0D0EF0CF0000E3A6E3EAEF3EFF1
:1019E0000CF0F5EF0CF019EF0DF0FF0E3B14356E17
:1019F000FF0E3C14366EFF0E3D14376E7F0E3E1404
:101A0000386E3550361037103810D8B40AEF0DF054
:101A10000CEF0DF010EF0DF0010E3A6E19EF0DF016
:101A200040A015EF0DF017EF0DF019EF0DF00CEFD2
:101A30000DF03A50D8B41FEF0DF021EF0DF045EF47
:101A40000DF0010E4026000E41224222432243A007
:101A50002CEF0DF02EEF0DF045EF0DF040C035F0FE
:101A600041C036F042C037F043C038F03834383225
:101A700037323632353235C040F036C041F037C0EB
:101A800042F038C043F0444A452A45BE50EF0DF0BD
:101A9000455008E14428D8A050EF0DF052EF0DF06A
:101AA0005CEF0DF0000E406E000E416E800E426E37
:101AB0007F0E436E8AEF0DF045BE69EF0DF0455085
:101AC00006E14404D8B067EF0DF069EF0DF075EF53
:101AD0000DF0000E406E000E416E000E426E000EC4
:101AE000436E000E396E8AEF0DF044C03FF0FF0EDA
:101AF0004016FF0E41167F0E4216000E43163FA001
:101B000084EF0DF086EF0DF087EF0DF0428ED89048
:101B10003F30436E3950431240C02DF041C02EF08B
:101B200042C02FF043C030F012000750800B146EFB
:101B3000075007241B6E06AEA0EF0DF0A2EF0DF0CC
:101B4000A3EF0DF01B801B50D8B4A9EF0DF0ABEF45
:101B50000DF0C0EF0DF01B28D8A4B1EF0DF0B3EFDE
:101B60000DF0BBEF0DF0000E046E000E056E000EC2
:101B7000066E000E076E068E000E076EC8EF0DF0A3
:101B8000000E046E000E056E000E066E000E076E4F
:101B90000B50800B141A0B500B241C6E0AAED3EFA3
:101BA0000DF0D5EF0DF0D6EF0DF01C801C50D8B421
:101BB000DCEF0DF0DEEF0DF0F3EF0DF01C28D8A4F4
:101BC000E4EF0DF0E6EF0DF0EEEF0DF0000E086E15
:101BD000000E096E000E0A6E000E0B6E0A8E000ECD
:101BE0000B6EFBEF0DF0000E086E000E096E000E7E
:101BF0000A6E000E0B6E085009100A100B10D8A4C4
:101C000004EF0EF006EF0EF01EEF0EF0000E046E65
:101C1000000E056E000E066E000E076E800E061298
:101C20007F0E07121450071204C004F005C005F01F
:101C300006C006F007C007F061EF0FF01B50D8A4F4
:101C400024EF0EF026EF0EF030EF0EF0000E046ED3
:101C5000000E056E000E066E000E076E61EF0FF0AF
:101C60001C501BC00CF00D6A0C5E000E0D5A7F0E4E
:101C70000C24156E000E0D20166E04C010F005C069
:101C800011F006C012F007C013F0000E046E000E33
:101C9000056E000E066E000E076E000E176E000E2B
:101CA000186E000E196E000E1A6E000E1C6E91EF6B
:101CB0000EF01C50D8B45FEF0EF061EF0EF078EF2D
:101CC0000EF0D8901036113612361336D8900436EE
:101CD0000536063607361AAE70EF0EF072EF0EF0CC
:101CE00073EF0EF00480D8901736183619361A366E
:101CF0000850105C095011580A5012580B501358D4
:101D0000D8A085EF0EF087EF0EF090EF0EF01A8C52
:101D10000850105E0950115A0A50125A0B50135AAB
:101D20001C2A190E1C6497EF0EF099EF0EF059EF74
:101D30000EF01050111012101310D8B4A2EF0EF0C4
:101D4000A4EF0EF0BCEF0EF01780BCEF0EF0D890B1
:101D500004360536063607361AAEB1EF0EF0B3EF8D
:101D60000EF0B4EF0EF00480D890173618361936FE
:101D70001A361506D8A0160606AEC1EF0EF0C3EF50
:101D80000EF0A7EF0EF0000E1C6E1AAECAEF0EF0AA
:101D9000CCEF0EF0F0EF0EF0FF0E17140C6EFF0EEE
:101DA00018140D6EFF0E19140E6E7F0E1A140F6E9E
:101DB0000C500D100E100F10D8B4E1EF0EF0E3EF41
:101DC0000EF0E7EF0EF0010E1C6EF0EF0EF004A027
:101DD000ECEF0EF0EEEF0EF0F0EF0EF0E3EF0EF0A2
:101DE0001C50D8B4F6EF0EF0F8EF0EF01CEF0FF029
:101DF000010E0426000E05220622072207A003EF8B
:101E00000FF005EF0FF01CEF0FF004C00CF005C051
:101E10000DF006C00EF007C00FF00F340F320E3277
:101E20000D320C320CC004F00DC005F00EC006F0EF
:101E30000FC007F0154A162A16BE27EF0FF01650EE
:101E400008E11528D8A027EF0FF029EF0FF034EFA5
:101E50000FF0000E166E1568000E046E000E056E73
:101E6000000E066E000E076E16BE41EF0FF0165004
:101E700006E11504D8B03FEF0FF041EF0FF04FEF40
:101E80000FF0000E166E000E156E000E046E000EA2
:101E9000056E000E066E000E076E000E146E15C065
:101EA0001BF01BA056EF0FF058EF0FF05BEF0FF099
:101EB000068E5CEF0FF0069ED8901B30076E12EF77
:101EC0000EF01200FAC046F0FBC047F0FCC048F02C
:101ED000FDC049F052C04AF053C04BF054C04CF022
:101EE00055C04DF088EC1AF046C078F047C079F044
:101EF00048C07AF049C07BF0000E316E000E326EA1
:101F0000800E336E3F0E346ED9C04AF0DAC04BF00B
:101F1000DBC04CF0DCC04DF078C046F079C047F033
:101F20007AC048F07BC049F088EC1AF046C02DF02A
:101F300047C02EF048C02FF049C030F080EC0BF0C5
:101F40002DC060F02EC061F02FC062F030C063F091
:101F50000A0E316ED70E326E230E336E3C0E346E87
:101F6000000E086E000E096E000E0A6E400E0B6E1B
:101F7000D9C004F0DAC005F0DBC006F0DCC007F021
:101F800095EC0DF004C021F005C022F006C023F04E
:101F900007C024F0000E086E000E096E000E0A6ED7
:101FA000400E0B6E78C004F079C005F07AC006F0E0
:101FB0007BC007F095EC0DF004C01DF005C01EF0CD
:101FC00006C01FF007C020F020EC09F01DC02DF066
:101FD0001EC02EF01FC02FF020C030F080EC0BF0A0
:101FE0002DC064F02EC065F02FC066F030C067F0E1
:101FF000D1C021F0D2C022F0D3C023F0D4C024F04D
:1020000060C01DF061C01EF062C01FF063C020F010
:1020100020EC09F01DC068F01EC069F01FC06AF016
:1020200020C06BF078C021F079C022F07AC023F094
:102030007BC024F0000E316E000E326E000E336E47
:10204000400E346ED9C02DF0DAC02EF0DBC02FF078
:10205000DCC030F080EC0BF02DC01DF02EC01EF067
:102060002FC01FF030C020F020EC09F01DC06CF034
:102070001EC06DF01FC06EF020C06FF064C021F074
:1020800065C022F066C023F067C024F068C01DF070
:1020900069C01EF06AC01FF06BC020F020EC09F090
:1020A0001DC070F01EC071F01FC072F020C073F030
:1020B000000E316E000E326E000E336E000E346E66
:1020C000D5C021F0D6C022F0D7C023F0D8C024F06C
:1020D0006CC01DF06DC01EF06EC01FF06FC020F010
:1020E00020EC09F01DC02DF01EC02EF01FC02FF0F7
:1020F00020C030F080EC0BF02DC074F02EC075F0D5
:102100002FC076F030C077F070C01DF071C01EF0A7
:1021100072C01FF073C020F074C021F075C022F0AF
:1021200076C023F077C024F020EC09F01DC07CF0CD
:102130001EC07DF01FC07EF020C07FF0000E466EF6
:10214000000E476EC80E486E420E496E7CC04AF0C3
:102150007DC04BF07EC04CF07FC04DF0D5EC16F04A
:10216000D8B0B5EF10F0B7EF10F0C0EF10F0000EE0
:1021700000017C6F000E7D6FC80E7E6F420E7F6F78
:1021800000017FBFC8EF10F0C6EF10F0D0EF10F0E5
:10219000000E7C6F000E7D6F000E7E6F000E7F6F55
:1021A000D9C0D5F0DAC0D6F0DBC0D7F0DCC0D8F0AB
:1021B00078C0D9F079C0DAF07AC0DBF07BC0DCF00F
:1021C0007CC0D1F07DC0D2F07EC0D3F07FC0D4F00F
:1021D0007CC004F07DC005F07EC006F07FC007F033
:1021E00052EC16F00450120095C0D9FF96C0DAFFE9
:1021F000DECFF6FFDDCFF7FF0800F550250AD8A4A3
:1022000004EF11F006EF11F01BEF12F095C0D9FFAB
:1022100096C0DAFFDE2A000EDD22000E0001F06F0C
:10222000000EEF6FEFC0F5F0F169F26995C0D9FFCC
:1022300096C0DAFFDECFF6FFDDCFF7FF0800F550DE
:102240002E0AD8A426EF11F028EF11F03DEF11F07F
:1022500095C0D9FF96C0DAFFDE2A000EDD2295C0B8
:102260000AF096C00BF097C00CF098C00DF03BEC54
:1022700018F00AC0F1F00BC0F2F095C0D9FF96C07B
:10228000DAFFDECF9EF0DDCF9FF09EC0F6FF9FC04D
:10229000F7FF0800F5CF9DF05AEF11F09E4B9F2BF2
:1022A00074EF11F06C0E9D6F74EF11F0000E9D6FC6
:1022B00074EF11F000019D51546E556A5550000A9B
:1022C000D8B465EF11F056EF11F054504C0AD8B461
:1022D0004EEF11F02A0AD8B452EF11F00A0AD8B41E
:1022E0004EEF11F056EF11F09EC0F6FF9FC0F7FFC2
:1022F0000800F550660AD8A480EF11F082EF11F0C3
:102300000EEF12F0B8EF11F097C0D9FF98C0DAFFC6
:10231000DFCF54F0040EDE26DFCF55F0000EDD22B5
:1023200054C0D9FF55C0DAFFDECF99F0DECF9AF066
:10233000DECF9BF0DECF9CF0CDEF11F097C0D9FF40
:1023400098C0DAFFDFCF54F0040EDE26DFCF55F061
:10235000000EDD2254C0D9FF55C0DAFFDECF99F060
:10236000DECF9AF0DECF9BF0DECF9CF0CDEF11F008
:102370009D51546E556A5550000AD8B4C2EF11F001
:10238000CDEF11F054504C0AD8B49EEF11F0200A52
:10239000D8B484EF11F0CDEF11F0010E9E25546EEC
:1023A000000E9F21556E95C0D9FF96C0DAFF54C02C
:1023B000DEFF55C0DDFFF8EF11F093C060F094C070
:1023C00061F099C062F09AC063F09BC064F09CC059
:1023D00065F09EC0F6FF9FC0F7FF0800F5CF66F0DE
:1023E0001CEC04F060C093F061C094F039EF12F07F
:1023F0009EC0F6FF9FC0F7FF0800F550546E556A67
:102400005550000AD8B407EF12F00EEF12F05450F6
:10241000660AD8B4DDEF11F00EEF12F095C0D9FFC7
:1024200096C0DAFFDE2A000EDD22000E946F000E49
:10243000936F39EF12F095C0D9FF96C0DAFFDECF67
:10244000F6FFDDCFF7FF0800F550046E056A93C074
:1024500006F094C007F0D6EC17F095C0D9FF96C0EF
:10246000DAFFDE2A000EDD22000E0001946F010E5D
:10247000936F1200C9C02DF0CAC02EF0CBC02FF050
:10248000CCC030F01DC02DF01EC02EF01FC02FF0AC
:1024900020C030F0810E216EFF0E226E2DC023F081
:1024A0002EC024F02FC025F030C026F0180E5EEFAD
:1024B00012F0D8902632253224322332E82E59EFFA
:1024C00012F0235021242B6E000E22202C6E2CBEE5
:1024D00073EF12F02C5009E1170E2B5CD8A073EFAC
:1024E00012F075EF12F07FEF12F01DC01DF01EC04C
:1024F0001EF01FC01FF020C020F042EF13F02CBED2
:1025000084EF12F086EF12F0F6EF12F02BC021F0FC
:10251000FF0E226EFF0E236E7F0E246E000E256EC0
:10252000216695EF12F09DEF12F02534253224320A
:1025300023322232212E90EF12F022C027F023C046
:1025400028F024C029F025C02AF027502D14216E30
:1025500028502E14226E29502F14236E2A50301426
:10256000246E2150221023102410D8A4BAEF12F0A8
:10257000BCEF12F0BEEF12F075EF12F02DC021F09B
:102580002EC022F02FC023F030C024F0200ECEEF5A
:1025900012F0D8902432233222322132E82EC9EFB1
:1025A00012F02150221023102410D8B4DAEF12F0C8
:1025B000DCEF12F0E4EF12F027502D2628502E22E7
:1025C00029502F222A503022271C216E281C226ECF
:1025D000291C236E2A1C246E21502D1622502E16E3
:1025E00023502F16245030163AEF13F02DC021F04F
:1025F0002EC022F02FC023F030C024F0200E06EFB2
:1026000013F0D8902432233222322132E82E01EF07
:1026100013F02150221023102410D8A412EF13F02D
:1026200014EF13F01EEF13F0000E2D6E000E2E6E41
:10263000000E2F6E000E306E3AEF13F0D8902D344E
:10264000216E2E34226E2F34236E3034246E2150AE
:10265000221023102410D8B430EF13F032EF13F00F
:102660003AEF13F0000E2D6E000E2E6E800E2F6EC0
:10267000BF0E306E2DC01DF02EC01EF02FC01FF0FB
:1026800030C020F01200CDEC1AF0E9EC1BF0FDECAC
:102690001BF098EC1BF0FEEC1BF0000E01018A6FA2
:1026A000000E8B6F000E8C6F000E8D6F000E8E6F04
:1026B000000E8F6F000E906F000E916FFDEC14F006
:1026C000B2EC1BF00009D8B468EF13F06AEF13F016
:1026D00076EF13F0E0EC1BF004C008F005C009F041
:1026E00006C00AF007C00BF0CEEC1BF072EC1BF03A
:1026F00001018A51045C546F8B510558556F8C5100
:102700000658566F8D510758576F575156110BE1A8
:10271000E80E545D030E5559D8A091EF13F093EFD6
:1027200013F0B9EF13F072EC1BF004C08AF105C08E
:102730008BF106C08CF107C08DF1A8EC1BF0F2EC18
:102740001BF0E0EC1BF004C008F005C009F006C067
:102750000AF007C00BF0BCEC1BF00CEC1AF046C002
:102760004AF047C04BF048C04CF049C04DF0C5ECB2
:102770001BF072EC1BF001018E51045C546F8F5101
:102780000558556F90510658566F91510758576F1D
:1027900057515611551109E1320E545DD8A0D3EFAF
:1027A00013F0D5EF13F05EEF13F072EC1BF004C0E2
:1027B0008EF105C08FF106C090F107C091F10CECCD
:1027C0001AF046C093F147C094F148C095F149C052
:1027D00096F193C152F094C153F095C154F096C153
:1027E00055F062EC0FF00101926F9251F6EC1BF084
:1027F000580E0001A66F010EA76F000EA96F320ED2
:10280000A86F240EAA6F080EAB6FD7EC1BF004C0A4
:10281000ACF005C0ADF006C0AEF007C0AFF093C19C
:10282000B0F094C1B1F095C1B2F096C1B3F0CFEC65
:1028300015F0580E066E010E076E46EC1BF05EEFAB
:1028400013F01FEF00F00C6E0C50D8B42AEF14F008
:102850002CEF14F04EEF14F007BE33EF14F031EF0D
:1028600014F04EEF14F004C008F005C009F006C0E3
:102870000AF007C00BF0081E091E0A1E0B1E082ACC
:10288000000E09220A220B2208C00EF009C00FF028
:102890000AC010F00BC011F056EF14F004C00EF097
:1028A00005C00FF006C010F007C011F0045005106D
:1028B00006100710D8A45FEF14F061EF14F06BEF6F
:1028C00014F0000E046E000E056E000E066E000E73
:1028D000076EFCEF14F0960E0D6E75EF14F00D2AD6
:1028E000D890113210320F320E32000E0E14086ED4
:1028F000000E0F14096E000E10140A6EFE0E111455
:102900000B6E085009100A100B10D8A48AEF14F0AF
:102910008CEF14F06FEF14F09AEF14F00D2A010E03
:102920000E26000E0F2210221122D89011321032E2
:102930000F320E32000E0E14086E000E0F14096EC8
:10294000000E10140A6EFF0E11140B6E08500910C1
:102950000A100B10D8A4AFEF14F0B1EF14F08EEF03
:1029600014F0B9EF14F00D06D8900E360F3610366D
:10297000113610BEBEEF14F0C0EF14F0C8EF14F023
:10298000020E0D60C6EF14F0C8EF14F0B3EF14F0B0
:102990000DB0CDEF14F0CFEF14F0D0EF14F0109E87
:1029A000D8900D320DC008F0096A0A6A0B6A08C097
:1029B0000BF00A6A096A086A08500E1209500F12D1
:1029C0000A5010120B5011120C50D8B4EAEF14F048
:1029D000ECEF14F0F4EF14F007BEF3EF14F0F1EFA6
:1029E00014F0F4EF14F0118E0EC004F00FC005F0D7
:1029F00010C006F011C007F012008140E8423F0B02
:102A0000030B566E000E546E5B04D8A40AEF15F04B
:102A10000CEF15F016EF15F05650D8A412EF15F084
:102A200014EF15F016EF15F0010E546E5450D8A4A3
:102A30001CEF15F01FEF15F0010E20EF15F0000E42
:102A4000526E000E556E5B50D8A429EF15F02BEF97
:102A500015F035EF15F05604D8A431EF15F033EF2B
:102A600015F035EF15F0010E556E5550D8A43BEF1B
:102A700015F03EEF15F0010E3FEF15F0000E536E0E
:102A80005250D8B446EF15F048EF15F064EF15F04A
:102A9000DDC01DF0DEC01EF0DFC01FF0E0C020F082
:102AA000000E216E000E226E200E236E410E246E4B
:102AB00020EC09F01DC0DDF01EC0DEF01FC0DFF00D
:102AC00020C0E0F086EF15F05350D8B46AEF15F04F
:102AD0006CEF15F086EF15F0DDC046F0DEC047F074
:102AE000DFC048F0E0C049F0000E4A6E000E4B6EA9
:102AF000200E4C6E410E4D6E88EC1AF046C0DDF093
:102B000047C0DEF048C0DFF049C0E0F0DDC046F06D
:102B1000DEC047F0DFC048F0E0C049F0000E4A6E6A
:102B2000000E4B6E480E4C6E430E4D6ED5EC16F0FB
:102B3000D8B09DEF15F09FEF15F0AAEF15F0000E3D
:102B40000001DD6F000EDE6F480EDF6F430EE06F99
:102B5000CCEF15F0000E466E000E476EC80E486EA4
:102B6000430E496EDDC04AF0DEC04BF0DFC04CF0D2
:102B7000E0C04DF0D5EC16F0D8B0C1EF15F0C3EFC2
:102B800015F0CCEF15F0000E0001DD6F000EDE6FCA
:102B9000C80EDF6F430EE06F56C05BF01200800E70
:102BA0000001A95DD8A0D7EF15F0D9EF15F0DFEF40
:102BB00015F0000EF46F4B0EF36F51EF16F0AC0EE4
:102BC000B96F000EBA6FA6C0BDF0A7C0BEF0A95184
:102BD00009E1020EA85DD8A0F0EF15F0F2EF15F0B4
:102BE000FEEF15F0FF0EA825C76FFF0EA921C86FD5
:102BF000000EC16F000EC06F06EF16F0000EC86F1A
:102C0000010EC76F000EC16F010EC06FBD0EA06F29
:102C1000000EA16FAAC0A2F0ABC0A3F0B90EA46FC2
:102C2000000EA56FAEEC19F0A0C0BBF0A1C0BCF0C7
:102C30000001A851A911D8B420EF16F022EF16F028
:102C400051EF16F0BCBF27EF16F029EF16F051EF49
:102C500016F0FF0EA825B46FFF0EA921B56FB45171
:102C6000BB5DBC51800AB66FB551800AB659D8A079
:102C70003CEF16F03EEF16F046EF16F0FF0EA825DB
:102C8000B76FFF0EA921B86F4AEF16F0BBC0B7F0BF
:102C9000BCC0B8F0B751A625D96EB851A721DA6EDD
:102CA000DF6A1200063407340D6E0D50D8A45BEFB6
:102CB00016F05DEF16F067EF16F0000E046E000ED2
:102CC000056E000E066E000E076ED4EF16F004C0FF
:102CD00008F005C009F006C00AF007C00BF0200E8E
:102CE00077EF16F0D8900B320A3209320832E82E0C
:102CF00072EF16F008500C6E068EFF0E0416FF0ED3
:102D00000516FF0E0616000E0716960E0D5E0DBE7A
:102D10008EEF16F08CEF16F0A4EF16F00D50800A2F
:102D2000970FD8B096EF16F098EF16F09AEF16F0CE
:102D30005DEF16F0D89007320632053204320D3EB0
:102D40009AEF16F0BCEF16F01F0E0D64AAEF16F006
:102D5000ACEF16F0B4EF16F05DEF16F0D890043635
:102D60000536063607360D060D50D8A4BAEF16F014
:102D7000BCEF16F0AEEF16F00C50D8B4C2EF16F060
:102D8000C4EF16F0CCEF16F0071E061E051E046CED
:102D9000000E05220622072204C004F005C005F03B
:102DA00006C006F007C007F01200000E46144E6E73
:102DB000000E47144F6E800E4814506E7F0E49145B
:102DC000516E4E504F1050105110D8A4EAEF16F02B
:102DD000ECEF16F0F4EF16F0000E466E000E476EA4
:102DE000000E486E000E496E000E4A144E6E000E24
:102DF0004B144F6E800E4C14506E7F0E4D14516E5E
:102E00004E504F1050105110D8A409EF17F00BEF8F
:102E100017F013EF17F0000E4A6E000E4B6E000E07
:102E20004C6E000E4D6E49AE18EF17F01AEF17F00A
:102E300023EF17F0466C471ED8B0472A481ED8B07B
:102E4000482A800E49564DAE28EF17F02AEF17F0AA
:102E500033EF17F04A6C4B1ED8B04B2A4C1ED8B03B
:102E60004C2A800E4D56000E461A000E471A000ED0
:102E7000481A800E491A000E4A1A000E4B1A000E0C
:102E80004C1A800E4D1A4A50465C4B5047584C50D5
:102E900048584D504958D8B050EF17F052EF17F03E
:102EA00055EF17F0D89056EF17F0D8801200CDC02C
:102EB0000EF0CEC00FF0CFC010F0D0C011F004C0A3
:102EC0000EF005C00FF006C010F007C011F00EC0E4
:102ED00008F00FC009F010C00AF011C00BF0180E76
:102EE00077EF17F0D8900B320A3209320832E82E09
:102EF00072EF17F008500C6E0D6A0C500D10D8A42C
:102F000084EF17F086EF17F0A6EF17F0D8900E3485
:102F1000086E0F34096E10340A6E11340B6E0850AF
:102F200009100A100B10D8A498EF17F09AEF17F0B9
:102F3000A0EF17F0000E056E020E046ED5EF17F02D
:102F4000000E056E030E046ED5EF17F00C280D1061
:102F5000D8A4ADEF17F0AFEF17F0D1EF17F00EC018
:102F600008F00FC009F010C00AF011C00BF0090EF4
:102F7000D890083609360A360B36E82EB8EF17F027
:102F8000085009100A100B10D8B4C9EF17F0CCEF95
:102F900017F0010ECDEF17F0000E046E056AD5EFA5
:102FA00017F0000E056E040E046E12000650071096
:102FB000D8B4DDEF17F0DFEF17F0E8EF17F00650A9
:102FC0000710D8A4E6EF17F0E8EF17F0EDEF17F0D1
:102FD0000450FCEC1BF03AEF18F020EE0AF006501B
:102FE000D9260750DA22DE50DE10D8B4FAEF17F0F7
:102FF000FCEF17F017EF18F020EE0AF00650D92674
:103000000750DA2210EE03F00650E1260750E222C4
:10301000DE50E65CE650800A0C6EDE50800A0C58EA
:10302000D8B015EF18F017EF18F03AEF18F020EEBF
:1030300003F00650D9260750DA22DECF08F0DDCFA4
:1030400009F006C0D9FF07C0DAFFDECF0AF0DDCFF6
:103050000BF008500A24D96E09500B20DA6E04C018
:10306000DFFF20EE03F00650D9260750DA22DE2AD1
:10307000000EDD221200000E126E000E116E0AC04C
:10308000D9FF0BC0DAFFDECFF6FFDDCFF7FF080078
:10309000F5502A0AD8A44FEF18F051EF18F085EF39
:1030A00018F00AC0D9FF0BC0DAFFDE2A000EDD22BD
:1030B0000CC0D9FF0DC0DAFFDFCF0EF0020EDE2606
:1030C000DFCF0FF0000EDD220EC0D9FF0FC0DAFFF8
:1030D000DECF11F0DDCF12F099EF18F011C004F03F
:1030E00012C005F0000E076E0A0E066E85EC1BF08E
:1030F00010500424116E000E0520126E0AC0D9FF74
:103100000BC0DAFFDE2A000EDD220AC0D9FF0BC099
:10311000DAFFDECFF6FFDDCFF7FF0800F550D00F66
:10312000106E090E106497EF18F099EF18F06EEF1B
:1031300018F011C00AF012C00BF01200000E0414B7
:103140000C6E000E05140D6E800E06140E6E7F0EB2
:1031500007140F6E0C500D100E100F10D8A4B3EF03
:1031600018F0B5EF18F0BDEF18F0000E046E000E69
:10317000056E000E066E000E076E000E08140C6E33
:10318000000E09140D6E800E0A140E6E7F0E0B14C5
:103190000F6E0C500D100E100F10D8A4D2EF18F0B7
:1031A000D4EF18F0DCEF18F0000E086E000E096E78
:1031B000000E0A6E000E0B6E085004180FE1095045
:1031C00005180CE10A50061809E10B500718D8B48D
:1031D000ECEF18F0EEEF18F0F1EF18F0D890F2EFF6
:1031E00018F0D880120019BEF8EF18F0FAEF18F0B6
:1031F00000EF19F018C01DF019C01EF004EF19F00F
:10320000000E1E6E000E1D6E000E1C6E000E1B6E5C
:1032100016EF19F0000E056E200E046E14C006F0B5
:1032200015C007F0D6EC17F01B4A1C2A1D501B5C7A
:103230001C50800A1A6E1E50800A1A58D8A023EF1C
:1032400019F025EF19F00AEF19F016C00DF017C0AC
:103250000EF014C00FF015C010F0ABEC1AF016C051
:1032600004F017C005F02BEC1BF01D500424146E65
:103270001E500520156E1200F40EF66E370EF76E16
:10328000000EF86E01EE97F010EE04F00900F5CF95
:10329000EEFFE550E150FAE1DC0EF66E370EF76E08
:1032A000000EF86E00EEF6F010EE08F00900F5CF13
:1032B000EEFFE550E150FAE1FE0EF66E370EF76EC6
:1032C000000EF86E0900F5CF5BF001EE00F0540E31
:1032D000EE6AE806FDE100EEC9F02D0EEE6AE806A2
:1032E000FDE15A6A596A586A5C905C92000EF86E69
:1032F000000143EF13F007BE8AEF19F007500610E4
:10330000051006E10404D8B088EF19F08AEF19F02F
:10331000A5EF19F004C008F005C009F006C00AF0D6
:1033200007C00BF0081E091E0A1E0B1E082A000EFD
:1033300009220A220B2208C004F009C005F00AC0C5
:1033400006F00BC007F0ADEF19F004C004F005C0A3
:1033500005F006C006F007C007F01200A2C056F044
:10336000A3C057F0000E0001EE6F000EED6FCCEF22
:1033700019F0A0C093F0A1C094F0560E956F000E06
:10338000966FA4C097F0A5C098F0F4EC10F000017F
:103390009351ED279451EE2356C0F6FF57C0F7FF27
:1033A0000800F5500009D8A4D8EF19F0DAEF19F0A9
:1033B000B9EF19F0EDC0A0F0EEC0A1F012009EA090
:1033C000E4EF19F0E6EF19F00BEF1AF09E90D10E32
:1033D000CF6E200ECE6E5950585CD8B0F2EF19F077
:1033E000F4EF19F0F7EF19F08C8000EF1AF0640E8B
:1033F0005860FDEF19F0FFEF19F000EF1AF08C9014
:10340000582A630E586407EF1AF009EF1AF00BEF11
:103410001AF0000E586E1200C282C2B212EF1AF0F9
:1034200014EF1AF00DEF1AF0C3CF04F0C4CF05F07B
:10343000066A076A000E23EC14F004C02DF005C0E4
:103440002EF006C02FF007C030F0000E316E000ED7
:10345000326EC80E336E3E0E346E80EC0BF02DC013
:1034600046F02EC047F02FC048F030C049F012009F
:10347000046E080E056E829CF90E00D0E82EFDD772
:1034800000D000F004A047EF1AF049EF1AF04CEF1B
:103490001AF08B8C4DEF1AF0829CF90E00D0E82EBA
:1034A000FDD700D000F0D8900432052E42EF1AF07C
:1034B0008B8CF90E00D0E82EFDD700D000F0120062
:1034C00006C00DF007C00EF004C00BF005C00CF0F4
:1034D0007AEF1AF00DC0D9FF0EC0DAFFDF500A6E86
:1034E0000D4A0E2A0BC0D9FF0CC0DAFF0AC0DFFF5D
:1034F0000B4A0C2A0806D8A00906082806E1092864
:10350000D8A485EF1AF087EF1AF06AEF1AF01200CC
:10351000000E4A1A000E4B1A000E4C1A800E4D1A5D
:1035200046C01DF047C01EF048C01FF049C020F043
:103530004AC021F04BC022F04CC023F04DC024F013
:1035400020EC09F01DC046F01EC047F01FC048F037
:1035500020C049F01200000E136E000E126EBCEF78
:103560001AF011C004F0056A0FC006F010C007F091
:10357000D6EC17F0124A132A12500D24D96E1350AC
:103580000E20DA6EDF50116E1150D8A4CAEF1AF077
:10359000CCEF1AF0B1EF1AF01200C150F00B0E0987
:1035A000C16E9282938493869388C050C70B18098A
:1035B000C06EC050F80B0509C06EC08E000EC26E02
:1035C000C280F29EF29CCD8ED10ECF6E200ECE6EBA
:1035D0009E909D80F28CF28ECD809590120006C058
:1035E00008F007C009F004C00AF005C00BF008C0DD
:1035F000F6FF09C0F7FF084A092A0AC0D9FF0BC025
:10360000DAFF0A4A0B2A0800F5CFDFFFDF50D8A403
:103610000CEF1BF00EEF1BF0F7EF1AF01200045046
:10362000051006100710D8B418EF1BF01AEF1BF0A6
:1036300022EF1BF0000E041A000E051A000E061AE7
:10364000800E071A04C004F005C005F006C006F09D
:1036500007C007F0120004C006F005C007F033EF02
:103660001BF0044A052A04C0D9FF05C0DAFFDF5069
:10367000D8A43DEF1BF03FEF1BF031EF1BF00650DD
:10368000045C046E07500558056E120051EF1BF0E4
:1036900006C0D9FF07C0DAFFDF5038EC1AF0064A3F
:1036A000072A06C0D9FF07C0DAFFDF50D8A45BEFB6
:1036B0001BF05DEF1BF048EF1BF01200F2A463EF6C
:1036C0001BF065EF1BF071EF1BF0F294F60ED76E56
:1036D000D80ED66E320E0001E127000EE223E3235E
:1036E000E4231200F29EE1C008F0E2C009F0E3C05A
:1036F0000AF0E4C00BF0F28E08C004F009C005F037
:103700000AC006F00BC007F0120004500602F3CF07
:1037100008F0F4CF09F004500702F35009260550D1
:103720000602F350092608C004F009C005F0120093
:10373000F29ED59AD596070ED512D59CD58EF294C9
:10374000F28AF28CF60ED76ED80ED66EF28E12007A
:1037500080B2ADEF1BF0B0EF1BF0010EB1EF1BF02C
:10376000000E120081A8B7EF1BF0BAEF1BF0010E9C
:10377000BBEF1BF0000E120008C0E9F009C0EAF030
:103780000AC0EBF00BC0ECF012004AC0E5F04BC0F1
:10379000E6F04CC0E7F04DC0E8F0120008C0FAF0C7
:1037A00009C0FBF00AC0FCF00BC0FDF01200FAC02B
:1037B00004F0FBC005F0FCC006F0FDC007F01200ED
:1037C000DDC004F0DEC005F0DFC006F0E0C007F0A9
:1037D0001200829C8B9C949C8B8C12000000803F7A
:1037E00000004843046E04C05AF01200046E04C086
:0F37F00059F012000AD7233C12001200120003F6
:020000040030CA
:0E000000240E181EFF8181FF0FC00FE00F407D
:00000001FF
